:200000000C9478080C94A0080C94A0080C94A0080C94A0080C94A0080C94A0080C94A008C8
:200020000C94A0080C94A0080C94A0080C94A0080C94A0080C9429100C94A0080C94A008EF
:200040000C949C160C94A0080C94A0080C94A0080C94A0080C94A0080C94A0080C94A00856
:200060000C94A0080C94A00805A84CCDB2D44EB93836A9020C50B9918688083CA6AAAA2A68
:20008000BE000000803F6020000000000000000000000000003FFFFFFFFFFFFFFFFFFC0030
:2000A00003C0000000000000000003C01C00000000000000004010382000000000000000F6
:2000C000002020044000000000000000001040024000000000000000000A8002400000003E
:2000E000000000000007000240000000000000001FFFFFC240000000000000001000004246
:200100004FFF60180000000017FFFF424FFF6018000000301400014240606018000000302D
:2001200014707142406030300000003014888942406030303E060CFE1505254240603060F2
:20014000FF860CFE1572754240601860C1860C30150525424060186180C60C3014888942B4
:20016000406018C180C60C301470714240600CC180C60C301400014240600CC180C60C3018
:2001800017FFFF4240600F8180C60C301000004240600780C1871C30154015424060078076
:2001A000FF83FC3E128A8A42406003003E01EC1E15401542400000000000000010000042F1
:2001C00040000000000000001FFFFFC22000000000000000000000041C00000000000000C0
:2001E0000000003803C0000000000000000003C0003FFFFFFFFFFFFFFFFFFC00000000000E
:2002000000000000000000000808000000000000000000003E41554155493E003E7F6B7F36
:200220006B773E0022777F7F3E1C0800081C3E7F3E1C0800081C2A7F2A081C00081C3E7F66
:200240003E081C00001C3E3E3E1C00FFFFE3C1C1C1E3FF00001C2222221C00FFFFE3DDDD0B
:20026000DDE3FF000F03053948483000083E081C22221C0018141010307060000F1911134D
:2002800037766000082A1C771C2A080060787E7F7E786000030F3F7F3F0F0300081C2A089C
:2002A0002A1C080066666666006666003F65653D050505000C324824124C300000000000FF
:2002C0007F7F7F00081C2A082A1C3E00081C3E7F1C1C1C001C1C1C7F3E1C0800080C7E7F4C
:2002E0007E0C080008183F7F3F18080000007070707F7F000014227F22140000081C1C3E78
:200300003E7F7F007F7F3E3E1C1C08000000000000000000183C3C1818001800363614008F
:200320000000000036367F367F363600081E201C023C080060660C18306606003C663C287D
:2003400065663F0018181830000000006030181818306000060C1818180C060000361C7F76
:200360001C3600000008083E0808000000000030303060000000003C0000000000000000A1
:200380000060600000060C18306000003C666E7666663C001818381818187E003C66060C73
:2003A00030607E003C66061C06663C000C1C2C4C7E0C0C007E607C0606663C003C66607C07
:2003C00066663C007E660C0C181818003C66663C66663C003C66663E06663C000018180067
:2003E000181800000018180018183000060C1830180C060000003C003C0000006030180C8D
:20040000183060003C66061C1800180038445C58423C00003C66667E666666007C66667C16
:2004200066667C003C66606060663C007C66666666667C007E60607C60607E007E60607C68
:20044000606060003C6660606E663C006666667E666666003C18181818183C001E0C0C0CF6
:200460006C6C3800666C7870786C66006060606060607E0063777F6B6363630063737B6FFD
:20048000676363003C66666666663C007C6666667C6060003C6666666E3C06007C66667CED
:2004A000786C66003C66603C06663C007E5A1818181818006666666666663E006666666682
:2004C000663C18006363636B7F7763006363361C366363006666663C181818007E060C1803
:2004E00030607E001E18181818181E00006030180C06000078181818181878000814224199
:20050000000000000000000000007F000C0C06000000000000003C063E663E006060607C7E
:2005200066667C0000003C6660663C000606063E66663E0000003C667E603C001C36303007
:200540007C303000003E66663E063C006060607C666666000018001818183C000C000C0CA7
:200560006C6C38006060666C786C66001818181818181800000063777F6B6B0000007C7EBE
:200580006666660000003C6666663C00007C66667C606000003C6C6C3C0D0F0000007C66AD
:2005A0006660600000003E403C027C000018187E181818000000666666663E0000000066AB
:2005C000663C18000000636B6B6B3E000000663C183C6600000066663E063C0000003C0C8F
:2005E00018303C000E18183018180E0018181800181818007018180C1818700000003A6C49
:2006000000000000081C366341417F040620000000000000404040004000A0A000000000B2
:20062000A0E0A0E0A0004060C060C000A0204080A0002040C0A0E00080800000000040801A
:200640008080400080404040800040A0400000000040E04000000000008080000000E0003A
:200660000000000000008000202040808000E0A0A0A0E00040C04040E000E020E080E0003A
:20068000E020E020E000A0A0E0202000E080E020C000C080E0A0E000E02040808000E0A09A
:2006A000E0A0E000E0A0E020600000400040000000400040800020408040200000E000E07A
:2006C0000000804020408000C02040004000E0A0A0E0E000E0A0E0A0A000C0A0E0A0C000FA
:2006E000E0808080E000C0A0A0A0C000E080E080E000E080E0808000E08080A0E000A0A0DA
:20070000E0A0A000E0404040E000202020A0E00080A0C0C0A00080808080E000A0E0E0A039
:20072000A000C0A0A0A0A00040A0A0A04000E0A0E080800040A0A0E06600E0A0C0E0AA0089
:20074000E080E020E000E04040404000A0A0A0A0E000A0A0A0A04000A0A0E0E0A200A0A077
:2007600040A0A000A0A040404000E0204080E000C0808080C000008040202000C0404040D9
:20078000C00040A00000000000000000E0008040000000000060A0A060008080C0A0C000F9
:2007A000006080806000202060A0600040A0E08060006040E040400060A06020C0008080F9
:2007C000C0A0A00040004040400040004040C0008080A0C0A000C0404040E00000A0E0A019
:2007E000A00000C0A0A0A0000040A0A0400000C0A0C080000060A060200000C0A080800079
:2008000000604020600040E04040400000A0A0A0600000A0A0A0400000A0A0E0A00000A018
:200820004040A00000A0E020400000E04080E0002040C04022004040004040008040604056
:20084000800000A04000000078600000000000000000000000000000000FFFFFFF00000054
:200860000000000000FFFFFE080000010000000000000000800002080000010000000000E8
:200880000000008000020B0CE441000003120E226180B871820B0D9441000005141122612F
:2008A00080A4C9820A9504410000011411225280A481420A95044100000118113E5280B88E
:2008C00082420A6504410000011411224C80A483C20A6594410000011211224C80A4CA22BD
:2008E0000A64E381000007920E224C80A474220800000100000000000000008000020FFFBE
:20090000FFFF0000000000000000FFFFFE08000001000000000000000080000208700001D9
:20092000000001000100010080000208900001000002800280028080000208845E3900006E
:2009400004400440044080000208649241000008200820082080000208129241FFFFF01025
:200960001010101C80000208929241000000082008200480000208E11239000000044004EA
:200980004004A14F02080100010000000280028004B3498208020001000000010001000480
:2009A0009248820800000100000000000000079248820800000100000000000000049C487E
:2009C000820800000100000100010001048C4982080214F100000280028002848C4F0208B0
:2009E0000334990000044004400444800002080124890000082008200824800002080124F4
:200A000089FFFFF0101010101C8000020801C48900000008200820008000020800C49900F4
:200A2000000004400440008000020800C4F100000002800280008000020800000100000060
:200A400001000100008000020800000100000000000000008000020800000100000CF9C1B8
:200A6000C44C30800002080000010000141A42244C30800002080000010000341242244A1A
:200A80005080000208000001000024324227CA508000020800000100003E224224499080F8
:200AA0000002080000010000046242244990800002081E64F10000044381C449909E64F230
:200AC000083264990000000000000000B2649A082054890000000000000000A0548A08267E
:200AE0005489FFFFFFFFFFFFFFFFA6548A08224C890000000000000000A24C8A08324C9907
:200B00000000000000000000B24C9A081E4CF100000000000000009E4CF2080000010000F5
:200B20000000000000008000020FFFFFFF0000000000000000FFFFFE00000000000000002B
:200B4000000000000000000000000000000000000000000000000000000000000000000095
:200B6000000000000000000000000000000000000000000000000000000040000000000035
:200B8000000000300000040000400000000381C604004800000000004000000004422A0497
:200BA0000042258704383C488BC88E0824020A00222648044002488828900824020A0011C7
:200BC000444804601E4551E5180824021100094448041822455225060824021F004884483F
:200BE00004082242222202044222208030844704701E4221E21C0381CFA0800100000000D5
:200C00000000000400000000000001000000000000000400000000000000000000000000CB
:200C20000000000000000000000000000000000000000000000000000000000000000000B4
:200C4000000000000000000000000000000000000000000000000000000000000000000094
:200C600000000000828F0100001F0000000000000000808288800000010000000000000038
:200C800000804488410E0F02038B03C591078717E0448841100882044C80265104489880EA
:200CA000288841180884044881E44A04489080288841060884044882244A04489080108895
:200CC00081020888044882244404489080108F011C0F08038881E44407871060000000006A
:200CE0000800000000000804000000000000000800000000000804000000000000000000CC
:200D00000000000000000000000000000000000000000000000000000000000000000000D3
:200D20000000000000000000000000000000000000000000000000000000000000000000B3
:200D4000000000000000000000000000000000000000000000000000000000000000000093
:200D6000000000000000000000000000000000000000000000000000000000000000000073
:200D8000000000000000000000000000000000000000000000000000000000000000000053
:200DA000000000000000000000000000000000000000000000000000000000000000000033
:200DC000000000000000000000000000000000000000000000000000000000000000000013
:200DE000000000000000000000000608200000000000000000404040404000400050505055
:200E00000000000000000050F850F850002070A0702870200000C8D0205898000020508002
:200E200040A8906800404040000000000010204040402010004020101010204000103810AA
:200E40000000000000002020F8202000000000000000101000000000F80000000000000002
:200E6000000010000000081020408000007088A8A8887000002060202020700000708810D2
:200E80002040F80000F810201088700000909090F810100000F880F008887000007080F0BA
:200EA0008888700000F808102040800000708870888870000070888878087000000000204A
:200EC000000020000000002000202040000018608060180000000078007800000000C03002
:200EE0000830C000006090202000200000708898A890887000205088F888880000F088F082
:200F00008888F000007088808088700000F088888888F00000F880F88080F80000F880F011
:200F2000808080000070888098887000008888F888888800007020202020700000381010D1
:200F400010906000008890E0A0908800008080808080F8000088D8A8A8888800008888C8D1
:200F6000A8988800007088888888700000F088F08080800000708888A890680000F088F039
:200F8000A0908800007880700808F00000F8202020202000008888888888700000888888E9
:200FA00088502000008888A8A8A850000088502050888800008888502020200000F80810B9
:200FC0002040F80000E080808080E000000080402010080000380808080838000020500001
:200FE0000000000000000000000000F800804000000000000000601070906000008080E089
:201000009090E0000000007080807000001010709090700000006090F0807000003040E0B0
:20102000404040000000609070101060008080E09090900000200020202070000010003050
:2010400010101060008090A0C0A09000006020202020700000000050A8A8A800000000F0D8
:201060008888880000000060909060000000006090F080800000006090F01010000000B068
:20108000484040000000304020106000004040E040404000000000909090600000000088D0
:2010A0008850200000000088A8A8500000008850205088000000009090604080000000F010
:2010C0002040F0000020404080404020002020202020202000201010081010200040A810A0
:2010E0000000000000000000000000000000B81911241FBECFEFD8E0DEBFCDBF12E0A0E0FC
:20110000B1E0E2ECFDE302C005900D92A030B107D9F722E0A0E0B2E001C01D92AE39B2071E
:20112000E1F718E0C8E7D8E004C02197FE010E94AC1DC737D107C9F70E94E6160C94DF1EC1
:201140000C9400000F93CF93DF93E0E8F2E0A785B089C0917402D09175028285AC0FBD1F3D
:201160000BB10F7703C000FA07F90BB90D90000007FA07F90BB900000000000006FA07F94A
:201180000BB900000000000005FA07F90BB900000000000004FA07F90BB900000000000006
:2011A00003FA07F90BB900000000000002FA07F90BB900000000000001FA07F90BB98A95D0
:2011C00091F60000000000FA07F90BB90BB10F7707FB07F90BB9DF91CF910F9108950F9313
:2011E000CF93DF93E0E8F2E0A785B089C0917402D09175028285AC0FBD1F0BB10F7703C0DA
:2012000000FA07F90BB90D9007FA07F90BB90000000006FA07F90BB90000000005FA07F9EB
:201220000BB90000000004FA07F90BB90000000003FA07F90BB90000000002FA07F90BB9A7
:2012400000008A9501FA07F90BB9D1F6000000FA07F90BB90BB10F7707FB07F90BB9DF91B3
:20126000CF910F9108950F93CF93DF93E0E8F2E0A785B089C0917402D09175028285AC0FFB
:20128000BD1F02C0000C0BB80D9000000BB800000000000C0BB800000000000C0BB80000E3
:2012A0000000000C0BB800000000000C0BB800000000000C0BB80000000C8A950BB811F7CB
:2012C0000000000C0BB80000000000005F98DF91CF910F9108950F93CF93DF93E0E8F2E02B
:2012E000A785B089C0917402D09175028285AC0FBD1F8E3191F08D3151F08C3149F08B315B
:2013000041F08A3139F0893131F0883129F01CC032C048C05EC074C08AC00D900BB8000039
:20132000000C0BB80000000C0BB80000000C0BB80000000C0BB80000000C0BB80000000C96
:201340000BB80000000C0BB80D900BB80000000C0BB80000000C0BB80000000C0BB800002E
:20136000000C0BB80000000C0BB80000000C0BB80000000C0BB80D900BB80000000C0BB802
:201380000000000C0BB80000000C0BB80000000C0BB80000000C0BB80000000C0BB8000042
:2013A000000C0BB80D900BB80000000C0BB80000000C0BB80000000C0BB80000000C0BB8C2
:2013C0000000000C0BB80000000C0BB80000000C0BB80D900BB80000000C0BB80000000C65
:2013E0000BB80000000C0BB80000000C0BB80000000C0BB80000000C0BB80000000C0BB81F
:201400000D900BB80000000C0BB80000000C0BB80000000C0BB80000000C0BB80000000C24
:201420000BB80000000C0BB80000000C0BB80D900BB80000000C0BB80000000C0BB800004D
:20144000000C0BB80000000C0BB80000000C0BB80000000C0BB80000000C0BB80D900BB821
:201460000000000C0BB80000000C0BB80000000C0BB80000000C0BB80000000C0BB8000061
:20148000000C0BB80000000C0BB80D900BB80000000C0BB80000000C0BB80000000C0BB8E1
:2014A0000000000C0BB80000000C0BB80000000C0BB80000000C0BB80D900BB80000000C84
:2014C0000BB80000000C0BB80000000C0BB80000000C0BB80000000C0BB80000000C0BB83E
:2014E0000000000C0BB80D900BB80000000C0BB80000000C0BB80000000C0BB80000000C44
:201500000BB80000000C0BB80000000C0BB80000000C0BB80D900BB80000000C0BB800006C
:20152000000C0BB80000000C0BB80000000C0BB80000000C0BB80000000C0BB80000000C94
:201540000BB80D900BB80000000C0BB80000000C0BB80000000C0BB80000000C0BB800002C
:20156000000C0BB80000000C0BB80000000C0BB80D900BB80000000C0BB80000000C0BB800
:201580000000000C0BB80000000C0BB80000000C0BB80000000C0BB80000000C0BB80D90A3
:2015A0000BB80000000C0BB80000000C0BB80000000C0BB80000000C0BB80000000C0BB85D
:2015C0000000000C0BB80000000C0BB80D900BB80000000C0BB80000000C0BB80000000C63
:2015E0000BB80000000C0BB80000000C0BB80000000C0BB80000000C0BB80D900BB800008C
:20160000000C0BB80000000C0BB80000000C0BB80000000C0BB80000000C0BB80000000CB3
:201620000BB80000000C0BB80D900BB80000000C0BB80000000C0BB80000000C0BB800004B
:20164000000C0BB80000000C0BB80000000C0BB80000000C0BB80D900BB80000000C0BB81F
:201660000000000C0BB80000000C0BB80000000C0BB80000000C0BB80000000C0BB800005F
:20168000000C0BB80D900BB80000000C0BB80000000C0BB80000000C0BB80000000C0BB8DF
:2016A0000000000C0BB80000000C0BB80000000C0BB80D900BB80000000C0BB80000000C82
:2016C0000BB80000000C0BB80000000C0BB80000000C0BB80000000C0BB80000000C0BB83C
:2016E0000D900BB80000000C0BB80000000C0BB80000000C0BB80000000C0BB80000000C42
:201700000BB80000000C0BB80000000C0BB80D900BB80000000C0BB80000000C0BB800006A
:20172000000C0BB80000000C0BB80000000C0BB80000000C0BB80000000C0BB80D900BB83E
:201740000000000C0BB80000000C0BB80000000C0BB80000000C0BB80000000C0BB800007E
:20176000000C0BB80000000C0BB80D900BB80000000C0BB80000000C0BB80000000C0BB8FE
:201780000000000C0BB80000000C0BB80000000C0BB80000000C0BB80D900BB80000000CA1
:2017A0000BB80000000C0BB80000000C0BB80000000C0BB80000000C0BB80000000C0BB85B
:2017C0000000000C0BB80D900BB80000000C0BB80000000C0BB80000000C0BB80000000C61
:2017E0000BB80000000C0BB80000000C0BB80000000C0BB80D900BB80000000C0BB800008A
:20180000000C0BB80000000C0BB80000000C0BB80000000C0BB80000000C0BB80000000CB1
:201820000BB80D900BB80000000C0BB80000000C0BB80000000C0BB80000000C0BB8000049
:20184000000C0BB80000000C0BB80000000C0BB80D900BB80000000C0BB80000000C0BB81D
:201860000000000C0BB80000000C0BB80000000C0BB80000000C0BB80000000C0BB800005D
:2018800000005F98DF91CF910F910895209180023091810280918702909188022817390709
:2018A0000CF44EC08CEA93E090938900809388001092810210928002809182029091830266
:2018C000A0918402B09185020196A11DB11D8093820290938302A0938402B0938502809193
:2018E000700290917102A0917202B0917302892B8A2B8B2B09F18091700290917102A09126
:201900007202B0917302181619061A061B0684F58091700290917102A0917202B091730224
:201920000197A109B1098093700290937102A0937202B09373021CC01092B1002B9818C067
:20194000209180023091810280918E02082E000C990B2817390761F48AE490E0909389002B
:201960008093880082EC9CE090937702809376028091800290918102019690938102809334
:201980008002089520918002309181028091860290E02817390759F41092750210927402AB
:2019A00080918C0280938D0282EF9CE00DC020918002309181028091870290918802281731
:2019C000390731F486E49CE09093770280937602809180029091810201969093810280930E
:2019E000800208953091840020918B022A50231B2350F0F72D5F19F02A9511F001C000001D
:201A0000E0917802F0917902099590918D0280918C0291110FC080938D0290918A02209181
:201A2000740230917502290F311D309375022093740203C0915090938D0240918002509185
:201A400081024F5F5F4F6091860270918902082E000C990B0196789F9001799F300D1124F3
:201A6000C901860F911D4817590731F482EC9CE0909377028093760280918002909181022D
:201A800001969093810280938002089508952F923F924F925F926F927F928F929F92AF9231
:201AA000BF92CF92DF92EF92FF920F931F93CF93DF9300D01F92CDB7DEB760918A02660F3D
:201AC000660F660F669570E080E090E00E94231C2B013C01509189025983652F669570E090
:201AE00080E090E00E94231C4B015C0180E192E09B838A8300E010E0EA81FB81C084D1843E
:201B0000E284F384C80180509E4F1C0120E030E040E852E460817181828193810E94EE1C41
:201B2000A70196010E94801BA30192010E940F1B0E94F21BF101608320E030E040E852E434
:201B4000EA81FB8164817581868197810E94EE1CA70196010E94801BA50194010E940F1B75
:201B60000E94F21BF10161838A819B810C969B838A830E5F1F4F0031110509F0BDCF409174
:201B8000860220918C02022E000C330B2F5F3F4FE981E29FC001E39F900D1124840F911DA7
:201BA0000196209180023091810228173907C9F7209180023091810228173907C9F30E9484
:201BC000D610B0900302C0900202F09001021091000201E02B2D4C2D6F2D812F0E94EF13BE
:201BE00090900502A0900402292D4A2D6F2D812F0E94EF137090090280900802272D482DDD
:201C00006F2D812F0E94EF13F0900B0210910A022F2D412F6B2D8C2D0E94EF13D090070270
:201C2000E09006022D2D4E2D6B2D8C2D0E94EF13B0900D02C0900C022B2D4C2D692D8A2D97
:201C40000E94EF132D2D4E2D692D8A2D0E94EF132B2D4C2D672D882D0E94EF132F2D412F90
:201C6000672D882D0E94EF1390900F02A0900E022B2D4C2D692D8A2D0E94EF132D2D4E2D6F
:201C8000692D8A2D0E94EF132F2D412F692D8A2D0E94EF130F900F900F90DF91CF911F9139
:201CA0000F91FF90EF90DF90CF90BF90AF909F908F907F906F905F904F903F902F900895C5
:201CC0004F925F926F927F928F929F92AF92BF92CF92DF92EF92FF920F931F93CF93DF9330
:201CE000CDB7DEB72C970FB6F894DEBF0FBECDBF6B017C010E947B1B69837A838B839C838A
:201D0000C701B6010E945B1D2B013C0100E112E0F801C480D580E680F78020E030E046E148
:201D200053E460857185828593850E940E1B4B015C0129813A814B815C810E94EE1C6D8354
:201D40007E838F83988729813A814B815C81C701B6010E94EE1C69877A878B879C87A3014E
:201D60009201C501B4010E94EE1C9B01AC0169857A858B859C850E940E1B20E030E0A901BD
:201D80000E940F1BF8016483758386839783A3019201C701B6010E94EE1C2D813E814F81DD
:201DA00058850E940F1B20E030E046E153E40E940F1BF8016087718782879387045F1F4F74
:201DC000F2E000371F0709F0A3CF2C960FB6F894DEBF0FBECDBFDF91CF911F910F91FF90B1
:201DE000EF90DF90CF90BF90AF909F908F907F906F905F904F9008954F925F926F927F925D
:201E00008F929F92AF92BF92CF92DF92EF92FF920F931F93CF93DF93CDB7DEB728970FB635
:201E2000F894DEBF0FBECDBF6B017C010E947B1B69837A838B839C83C701B6010E945B1D50
:201E40002B013C0100E112E0F801C080D180E280F38020E030E046E153E460857185828597
:201E600093850E940E1B4B015C0129813A814B815C810E94EE1C6D837E838F839887A30156
:201E80009201C501B4010E94EE1C4B015C0129813A814B815C81C701B6010E94EE1C9B010A
:201EA000AC01C501B4010E940F1B20E030E0A9010E940F1BF8016083718382839383A30119
:201EC0009201C701B6010E94EE1C9B01AC016D817E818F8198850E940E1B20E030E046E1DF
:201EE00053E40E940F1BF8016087718782879387045F1F4FF2E000371F0709F0A5CF2896B9
:201F00000FB6F894DEBF0FBECDBFDF91CF911F910F91FF90EF90DF90CF90BF90AF909F90C1
:201F20008F907F906F905F904F9008954F925F926F927F928F929F92AF92BF92CF92DF926F
:201F4000EF92FF920F931F93CF93DF93CDB7DEB728970FB6F894DEBF0FBECDBF6B017C013F
:201F60000E947B1B2B013C01C701B6010E945B1D69837A838B839C8300E112E0F801808045
:201F80009180A280B380C480D580E680F780A3019201C501B4010E94EE1C6D837E838F8304
:201FA000988729813A814B815C81C701B6010E94EE1C9B01AC016D817E818F8198850E94C4
:201FC0000E1B20E030E0A9010E940F1BF801608371838283938329813A814B815C81C50193
:201FE000B4010E94EE1C4B015C01A3019201C701B6010E94EE1C9B01AC01C501B4010E940F
:202000000F1B20E030E0A9010E940F1BF8016483758386839783045F1F4FF2E000371F0715
:2020200009F0ACCF28960FB6F894DEBF0FBECDBFDF91CF911F910F91FF90EF90DF90CF902B
:20204000BF90AF909F908F907F906F905F904F9008951F920F920FB60F9211242F933F93AA
:202060004F935F936F937F938F939F93AF93BF93EF93FF93E0917602F09177020995FF916B
:20208000EF91BF91AF919F918F917F916F915F914F913F912F910F900FBE0F901F90189509
:2020A000A0E8B2E01A96EC911A97982F9695969596956E9FF0011124BF01690F711D1F9632
:2020C000ED91FC915097E60FF71F282F277080E890E002C0959587952A95E2F79081892BD8
:2020E00080830895413011F40C94501020918A02982F969596959695E0918F02F091900230
:202100008770629FB0011124690F711DE60FF71F41110CC02FE73FEFA90102C0559547953C
:202120008A95E2F7CA01908189230BC020E830E0A90102C0559547958A95E2F7CA01908136
:2021400089278083089580917D0290E040918902E0917E02F0917F0231965491242F30E0D1
:20216000251B310982179307DCF0E49180918F029091900220918A02DC01E29FA00DB11D06
:202180001124BC01429F600D711D11249B01FC012A173B0720F08C9181931D92F9CF0895CB
:2021A000E4918E0F911D80937D02089510927C0210927D0280E090E020918A023091890296
:2021C000239F90011124821793074CF4E0918F02F0919002E80FF91F10820196EDCF08955E
:2021E0008F929F92AF92BF92CF92DF92EF92FF92CF93DF937C01C0918702D0918802C6300B
:2022000081E0D80709F5609182027091830280918402909185020E94211C23E333E34EE716
:2022200052E40E94EE1C20E030E043E853E40E94EE1C20E030E04AE754E40E94801B0E9446
:20224000F21B9B01AC0112C020918202309183024091840250918502A0E0BEE40E94CA1A74
:2022600028EE33E040E050E00E94DD1ADA01C9018E0D9F1DA11DB11D6C017D0188EE882EAD
:2022800083E0982EA12CB12CC63091E0D907F9F460918202709183028091840290918502FD
:2022A0000E94211C23E333E34EE752E40E94EE1C20E030E043E853E40E94EE1C20E030E0DE
:2022C0004AE754E40E94801B0E94F21B12C020918202309183024091840250918502A0E01D
:2022E000BEE40E94CA1AA50194010E94DD1ACA01B9016C157D058E059F0530F2DF91CF9131
:20230000FF90EF90DF90CF90BF90AF909F908F9008952F923F924F925F926F927F928F92D1
:202320009F92AF92BF92CF92DF92EF92FF920F931F93CF93DF93CDB7DEB729970FB6F894A4
:20234000DEBF0FBECDBF6A01482F477078E0741B011106C0F601E20FF31F04912F5F3F4F84
:20236000E11006C0F601E20FF31FE4902F5F3F4F902F9770E02FE695E695E695992311F019
:20238000EF5F01C098E0869586958695082F10E01C830B83642E712C5301A90EB11C4FEFCC
:2023A00050E00A2C02C0559547950A94E2F7872F90E09A838983E13011F4F42F01C0F0E09F
:2023C0008FEF90E0DC0101C0AA0F7A95EAF7FA2BF987D501189702C095958795AA95E2F77E
:2023E000F82EA0E0B0E0062F10E01E830D832E2E312C11E0211A3108AE1508F08EC0509149
:202400008A028D819E818A0F9B1F589F8001599F100D11246B817C81060F171FE0917A02CD
:20242000F0917B02E00FF11F5081898585238083B9016F5F7F4FF601E20FF31F8491E0913F
:202440007A02F0917B02E00FF11F882E912C062C02C0959487940A94E2F79081892A80821B
:202460002101460E571E4801821A930A8401060F171F20917A0230917B0290E06415750551
:2024800010F5F901E00FF11F5081098001C0880F0A94EAF78083F601E60FF71F8491E09182
:2024A0007A02F0917B02E00FF11F282F30E0062C02C0359527950A94E2F79081292B208343
:2024C0006F5F7F4FD3CFE8E0AE16B10448F4F8013197E20FF31F54232081522B50830AC04B
:2024E000F8E0AF16B10431F0F901E00FF11F20812F21208320917A0230917B02F901E00F88
:20250000F11F098002C0880F991F0A94E2F79081892B808311969B016FCF29960FB6F89441
:20252000DEBF0FBECDBFDF91CF911F910F91FF90EF90DF90CF90BF90AF909F908F907F90BE
:202540006F905F904F903F902F900895EF920F93242F40917E0250917F02FA013296949172
:20256000DA011196FD01E490FA010491FD01A491291B2A9F900111242D5F3F4F0E9489117B
:202580000F91EF900895CF93DF931F92CDB7DEB78A3001F1C8F4882309F456C0883021F5ED
:2025A000E0917E02F0917F02E49180917C0290E08E1B910980937C0240E260917D020F90AF
:2025C000DF91CF910C94A6128D3059F08E3009F43BC00AC010927C020F90DF91CF910C941E
:2025E000A31010927C0230C0482F80917C0220918A02E0917E02F0917F02E491682F70E086
:2026000098E0299F900111242E1B3109621773075CF010927C0249830E94A31049816091F6
:202620007D0280917C0202C060917D020E94A612E0917E02F0917F02E49180917C02F0E039
:20264000E80FF11DE0937C020F90DF91CF910895CF93DF93EC018991882319F00E94C31272
:20266000FACFDF91CF9108950F931F93CF93DF93FB01DA0170918A02E417F507C1F408E004
:20268000709FD0011124AF0155274A175B070CF0A1C090918902891708F09CC0422F682F31
:2026A0008E2FDF91CF911F910F910C9472104E175F0720F4AF015527FD01DA01AF014770D0
:2026C0005527CFEFD0E08E0102C0159507954A95E2F7A801902F33E0F695E7953A95E1F798
:2026E000789FB0011124E60FF71F8D010770112702C0D595C7950A95E2F73C2F309553E032
:20270000B695A7955A95E1F76A0F7B1FE617F70719F4932F942330E02130E9F4AF014F5F3B
:202720005F4FA0917A02B0917B02EA0FFB1F8081982B90838FEFE0917A02F0917B02E40F3A
:20274000F51F4617570720F480834F5F5F4FF3CF8081382B3EC021111EC0AF014F5F5F4FF7
:20276000A0917A02B0917B02EA0FFB1F9095808198239083E0917A02F0917B02E40FF51FF5
:202780004617570720F410824F5F5F4FF3CF3095808138231EC02230E9F4AF014F5F5F4F80
:2027A000A0917A02B0917B02EA0FFB1F808198279083E0917A02F0917B02E40FF51F8081D5
:2027C0004617570728F4809580834F5F5F4FF1CF38273083DF91CF911F910F9108952F925E
:2027E0003F924F925F926F927F928F929F92AF92BF92CF92DF92EF92FF920F931F93CF93A6
:20280000DF9300D000D0CDB7DEB7962FE22F202FC82ED12C60918A0270E08B01F3E0000F3A
:20282000111FFA95E1F70C151D050CF41CC130918902391708F417C1A42FB0E00A171B07CB
:202840000CF411C13E1708F40EC184138BC0F0E0E92EF12CEE16FF0609F5C016D1060CF0F0
:2028600002C1931708F0FFC0422F692F0F900F900F900F90DF91CF911F910F91FF90EF9081
:20288000DF90CF90BF90AF909F908F907F906F905F904F903F902F900C947210EE15FF05FB
:2028A00028F03E2F9F2FF701E32EF92E982F977040E850E002C0559547959A95E2F7342F7C
:2028C000E69F8001E79F100DF69F100D1124869586958695B801680F711DCB012130A1F4A7
:2028E000EE16FF0608F4BFC040917A0250917B02480F591FDA012C91232B2C9320918A02F8
:20290000820F911D3196ECCF211115C04095EE16FF0608F4A8C060917A0270917B02680F4B
:20292000791FDB012C9124232C9320918A02820F911D3196ECCF223009F095C0EE16FF06B9
:2029400008F491C040917A0250917B02480F591FDA012C9123272C9320918A02820F911D93
:202960003196ECCF9E131BC0AD01B601892F0F900F900F900F90DF91CF911F910F91FF9001
:20298000EF90DF90CF90BF90AF909F908F907F906F905F904F903F902F900C943413A92EE6
:2029A000B12C481738F4A6014A1B5B0B5C834B838FEF06C0BD016C197D097C836B8381E035
:2029C000EE2EF12CE91730F4D501AE19BF097D013FEF03C0EA18FB0831E04B815C814E15A4
:2029E0005F0544F44B819C81FC82EB82E42EF92E91E001C090E0EE0CFF1C37016B817C8156
:202A0000661A770A8B01000F111F212C312C432E330F5508882E880F9908AB81BC81A21522
:202A2000B3050CF1422F6A2D8C2D2A8399830E9472102A81998177FC09C0913019F4C80C90
:202A4000D91C02C0A40CB51C601A710A913019F4A40CB51C02C0C80CD91C6E0C7F1C7FEFEC
:202A6000271A370ADACF0F900F900F900F90DF91CF911F910F91FF90EF90DF90CF90BF9064
:202A8000AF909F908F907F906F905F904F903F902F9008958F929F92AF92BF92CF92DF92EC
:202AA000EF92FF920F931F93CF93DF93F82EC62FD42F122F0F3F59F0E62EC22ED12CC60E11
:202AC000D11C882E912C5401A40EB11C28C0DF0D01E02C2F4D2F6C2F8F2D0E94EF131C0F10
:202AE000212F4F2D6C2F8F2D0E94EF13212F4D2F6C2F8D2F0E94EF13212F4D2F612F8F2D30
:202B00000E94EF13DF91CF911F910F91FF90EF90DF90CF90BF90AF909F908F9008958E2DE1
:202B200090E08C159D059CF6202FA501B4018E2D0E943413E394F3CF2F923F924F925F9265
:202B40006F927F928F929F92AF92BF92CF92DF92EF92FF920F931F93CF93DF9300D000D0D3
:202B600000D0CDB7DEB7F82EE62E942E522E242F30E03E832D8381E090E06C01C21AD30A25
:202B80001901319421943108220C331C3FEF531671F06F2D70E04D815E81460F571F8D8181
:202BA0009E81681B790B252D8E2D0E943413692D6E0D8F2D0E9450106E2D69198F2D0E94AF
:202BC00050106E2D892D8F0D0E9450106E2D8F2D89190E9450101A8200E010E0AF2CB12C87
:202BE000ED81FE810E171F070CF085C0D7FC0AC0ED81FE813197FE83ED83F2E02F0E311CBD
:202C0000C20CD31C0F5F1F4FC801880F991F0196C80ED91E4D804E0C3E2D8D81381B3983F0
:202C20009E2D900F9B833E2D301B3C838FEF5816C1F1892D90E0ED81FE818E179F0791F01A
:202C4000252D38016A0C7B1CA3014501801A910AB401842D0E943413252DA301B4018981B9
:202C60000E9434133A81832F90E080179107B9F08D819E810817190791F0252D4C018A0C94
:202C80009B1CA4013501681A790AB3018B810E943413252DA401B3018C810E9434139D8036
:202CA0000A83642D7F2C700E872D0E945010642D8F2C801A882D0E9450106981872D0E943A
:202CC00050106981882D0E9450106B817D807F0C872D0E9450106B818F2C9D81891A882DAC
:202CE0000E9450106C81872D0E9450106C81882D0E94501075CF26960FB6F894DEBF0FBED0
:202D0000CDBFDF91CF911F910F91FF90EF90DF90CF90BF90AF909F908F907F906F905F9052
:202D20004F903F902F9008950E9428138DE00E94C3128AE00C94C3121F920F920FB60F9231
:202D400011242F933F938F939F93AF93BF938091960290919702A0919802B09199023091F7
:202D6000950223E0230F2D3720F40196A11DB11D05C026E8230F0296A11DB11D2093950279
:202D80008093960290939702A0939802B09399028091910290919202A0919302B09194022B
:202DA0000196A11DB11D8093910290939202A0939302B0939402BF91AF919F918F913F9142
:202DC0002F910F900FBE0F901F901895789484B5826084BD84B5816084BD85B5826085BDAB
:202DE00085B5816085BD80916E00816080936E001092810080918100826080938100809159
:202E00008100816080938100809180008160809380008091B10084608093B1008091B0008C
:202E200081608093B00080917A00846080937A0080917A00826080937A0080917A0081608C
:202E400080937A0080917A00806880937A001092C10080EA95E00E94B21D90937B0280937F
:202E60007A02009709F458C010927C0210927D029093900280938F028FE080938A0280E61C
:202E8000809389021092820210928302109284021092850281E080938C0280938D0222EA46
:202EA00038E03093790220937802579A219A5F98299A239A92EC9093800099E1909381002D
:202EC0009CE39093860297EC90938B0297E090938E0228E331E030938802209387022FEFA8
:202EE00033E030938700209386002AE430E0309389002093880029E331E030938102209381
:202F0000800226E43CE0309377022093760280936F0078940E94D6108AEE9DE090937F02F3
:202F200080937E02E6E8F0E0C491E7E8F0E0D4918C2F8770AC2EA694A694A6948111A39404
:202F4000B12CCD2ED12CC6010197A89E4001A99E900CB89E900C112482E0880E911C11E016
:202F60006C2E712C1D17E0F480918A02880F880F880F90E08619970997FD01969595879590
:202F8000E12E0C2F940146E850E060E00E9489118A189B0882E390E00E94F0101F5FE2CF8D
:202FA00010E0D0E0212F30E08091890290E08C199D0997FD01969595879528173907DCF4FA
:202FC00080918A02880F880F880F90E08C1B9D0B97FD019695958795E12C00E020E030E062
:202FE00046E850E0612F0E94891182E390E00E94F0101F5FD7CF88EB9BE00E94F0100E94DA
:20300000D6108AE091E00E94941684EC99E00E94F01089E391E00E94941684EC99E00E9464
:20302000F01085E791E00E9494168CED95E00E94F010E12C00E020E030E048E458E060E036
:2030400080E00E94891180E197E20E94F0100E94D61083E891E00E94941680ED97E00E9422
:20306000F0100E94D61010927C0210927D028FE991E00E9428138DE00E94C3128AE00E94D1
:20308000C3128BE096E090937F0280937E028FEA91E00E949416CAEEDDE0D0937F02C09361
:2030A0007E028DEB91E00E94941688E092E090937F0280937E028BEC91E00E949416D093B3
:2030C0007F02C0937E0280ED97E00E94F0100E94D61089E080937C028CE280937D0289ED1E
:2030E00091E00E94281380ED97E00E94F0100E94D610609189024BEA649F412D1124469542
:20310000669580918A02880F880F880F2FEF86950E949C1584EF91E00E94F01060918902C4
:20312000669580918A02880F880F880F22E0462F86950E949C1580ED97E00E94F0100E9425
:20314000D6100FEF28E340E564E184E10E944A1584EF91E00E94F01002E02CE444E66AE0C4
:203160008AE00E944A1584EF91E00E94F0102CE44CE364E18CE30E94EF1320E344E660E357
:2031800084E10E94EF1384EF91E00E94F01026E54EE66AE08AE00E94EF132AE04EE666E580
:2031A0008AE00E94EF1380ED97E00E94F0100E94D61080E180937C0288E280937D028BEE8C
:2031C00091E00E9428138CE180937C0280E380937D0287EF91E00E94281380ED97E00E9464
:2031E000F01080E480937C0080917A00806480937A0080917A0086FDFCCF6091780080918D
:20320000790070E0782B072E000C880B990B611571058105910511F00E94A21A82E3C82E08
:20322000D12CE12CF12C96E0892E912CA12CB12C20E0622E20E0722E0E949D1AA70196010B
:203240000E94AB1ADC01CB010A96A11DB11DEC010E949D1AA50194010E94AB1A6230710542
:203260008105910509F43FC074F46115710581059105C9F0613071058105910509F071C0C0
:2032800000E010E021C0643071058105910509F44AC0CCF1653071058105910509F061C052
:2032A00000E010E050C000E010E00C171D070CF058C060E577E786E59DE30E94960F0E948C
:2032C000470D0F5F1F4FF1CF0C171D070CF049C06CEE72E687EC90E40E94960F0E94470DDC
:2032E0000F5F1F4FF1CF00E010E00C171D07CCF560E577E786E59DE30E94600E0E94470DC6
:203300000F5F1F4FF2CF00E010E00C171D074CF56CEE72E687EC90E40E94600E0E94470D19
:203320000F5F1F4FF2CF00E010E00C171D07CCF460E577E786E59DE30E94FC0E0E94470DE9
:203340000F5F1F4FF2CF0C171D075CF46CEE72E687EC90E40E94FC0E0E94470D0F5F1F4F22
:20336000F2CF6114710409F467CF0E94000064CF0F931F93E0E1F2E080E090E0A8E4B2ECB9
:2033800080839183A283B38340E050E068E472E4448355836683778300E010E028EC32E44D
:2033A00000871187228733874487558766877787408B518B628B738B048B158B268B378BC5
:2033C000808F918FA28FB38F848F958FA68FB78F00A311A322A333A344A355A366A377A3A5
:2033E00080A791A7A2A7B3A704A715A726A737A780AB91ABA2ABB3AB44AB55AB66AB77AB85
:2034000000E010E028E433E400AF11AF22AF33AF44AF55AF66AF77AF40935002509351020A
:203420006093520270935302009354021093550220935602309357028093580290935902F8
:20344000A0935A02B0935B0280935C0290935D02A0935E02B0935F02009360021093610218
:203460002093620230936302409364025093650260936602709367028093680290936902B8
:20348000A0936A02B0936B0200936C0210936D0220936E0230936F021F910F9108958F9265
:2034A0009F92AF92BF92CF92DF92EF92FF92CF93DF93EC01688179818A819B8161157105AE
:2034C0008105910521F464E279ED8BE597E02DE133EF41E050E00E94AB1A49015A019B01FF
:2034E000AC01A7EAB1E40E94CA1A6B017C01ACEEB4EFA50194010E94D81ADC01CB018C0D3C
:203500009D1DAE1DBF1DB7FF03C00197A109B04888839983AA83BB83BC01CD019F77DF91F4
:20352000CF91FF90EF90DF90CF90BF90AF909F908F9008950E944F1A089580E091E00E94BB
:203540004F1A0895609300017093010180930201909303010895052E97FB1EF400940E9485
:20356000C21A57FD07D00E94DD1A07FC03D04EF40C94C21A50954095309521953F4F4F4FB6
:203580005F4F089590958095709561957F4F8F4F9F4F08950E94FF1AA59F900DB49F900DE8
:2035A000A49F800D911D11240895B7FF0C94CA1A0E94CA1A821B930B0895A1E21A2EAA1B93
:2035C000BB1BFD010DC0AA1FBB1FEE1FFF1FA217B307E407F50720F0A21BB30BE40BF50BA8
:2035E000661F771F881F991F1A9469F760957095809590959B01AC01BD01CF010895A29F5A
:20360000B001B39FC001A39F700D811D1124911DB29F700D811D1124911D08955058BB2730
:20362000AA270E94261B0C94A01C0E94671C38F00E946E1C20F039F49F3F19F426F40C941F
:20364000641C0EF4E095E7FB0C945E1CE92F0E94C51C58F3BA17620773078407950720F0A6
:2036600079F4A6F50C94E71C0EF4E0950B2EBA2FA02D0B01B90190010C01CA01A001112434
:20368000FF27591B99F0593F50F4503E68F11A16F040A22F232F342F4427585FF3CF46959F
:2036A00037952795A795F0405395C9F77EF41F16BA0B620B730B840BBAF09150A1F0FF0F5E
:2036C000BB1F661F771F881FC2F70EC0BA0F621F731F841F48F4879577956795B795F79510
:2036E0009E3F08F0B0CF9395880F08F09927EE0F9795879508950E94771CE3950C94B11C03
:203700000E94941B0C94A01C0E946E1C58F00E94671C40F029F45F3F29F00C945E1C5111E3
:203720000C94E81C0C94641C0E94C51C68F39923B1F3552391F3951B550BBB27AA2762174F
:203740007307840738F09F5F5F4F220F331F441FAA1FA9F335D00E2E3AF0E0E832D091502F
:203760005040E695001CCAF72BD0FE2F29D0660F771F881FBB1F261737074807AB07B0E8A0
:2037800009F0BB0B802DBF01FF2793585F4F3AF09E3F510578F00C945E1C0C94E81C5F3F1D
:2037A000E4F3983ED4F3869577956795B795F7959F5FC9F7880F911D9695879597F9089523
:2037C000E1E0660F771F881FBB1F621773078407BA0720F0621B730B840BBA0BEE1F88F772
:2037E000E09508950E94CD1C88F09F5798F0B92F9927B751B0F0E1F0660F771F881F991FAB
:203800001AF0BA95C9F714C0B13091F00E94E71CB1E008950C94E71C672F782F8827B85FE0
:2038200039F0B93FCCF3869577956795B395D9F73EF490958095709561957F4F8F4F9F4F6C
:203840000895E89409C097FB3EF490958095709561957F4F8F4F9F4F9923A9F0F92F96E9F7
:20386000BB279395F695879577956795B795F111F8CFFAF4BB0F11F460FF1BC06F5F7F4FE7
:203880008F4F9F4F16C0882311F096E911C0772321F09EE8872F762F05C0662371F096E8D1
:2038A000862F70E060E02AF09A95660F771F881FDAF7880F9695879597F9089597F99F6756
:2038C00080E870E060E008959FEF80EC089500240A941616170618060906089500240A9425
:2038E000121613061406050608950C94641C0E94CD1CD8F3E894E0E0BB279F57F0F02AED44
:203900003FE049EC06C0EE0FBB0F661F771F881F28F0B23A62077307840728F0B25A620B01
:20392000730B840BE3959A9572F7803830F49A95BB0F661F771F881FD2F790480C94651D10
:20394000092E0394000C11F4882352F0BB0F40F4BF2B11F460FF04C06F5F7F4F8F4F9F4F23
:203960000895EF93E0FF07C0A2EA2AED3FE049EC5FEB0E94261B0E94A01C0F90039401FCCD
:203980009058E8E6F0E00C94711D57FD9058440F551F59F05F3F71F04795880F97FB991F6B
:2039A00061F09F3F79F087950895121613061406551FF2CF4695F1DF08C01616170618064C
:2039C000991FF1CF86957105610508940895E894BB2766277727CB0197F908950E94011DFD
:2039E0000C94A01C0E94671C38F00E946E1C20F0952311F00C945E1C0C94641C11240C941A
:203A0000E81C0E94C51C70F3959FC1F3950F50E0551F629FF001729FBB27F00DB11D639FDA
:203A2000AA27F00DB11DAA1F649F6627B00DA11D661F829F2227B00DA11D621F739FB00D5C
:203A4000A11D621F839FA00D611D221F749F3327A00D611D231F849F600D211D822F762F9B
:203A60006A2F11249F5750409AF0F1F088234AF0EE0FFF1FBB1F661F771F881F915050407A
:203A8000A9F79E3F510580F00C945E1C0C94E81C5F3FE4F3983ED4F3869577956795B795A4
:203AA000F795E7959F5FC1F7FE2B880F911D9695879597F908959F930E94771C0F9007FC5D
:203AC000EE5F0C94B11C9F3F31F0915020F4879577956795B795880F911D9695879597F9AC
:203AE00008959F938F937F936F93FF93EF939B01AC010E94EE1CEF91FF910E94851D2F91A4
:203B00003F914F915F910C94EE1CDF93CF931F930F93FF92EF92DF927B018C01689406C0E5
:203B2000DA2EEF010E94011DFE01E894A5912591359145915591A6F3EF010E94261BFE0179
:203B40009701A801DA9469F7DF90EF90FF900F911F91CF91DF910895EE0FFF1F0590F491E7
:203B6000E02D0994CF93DF938230910510F482E090E0E0919C02F0919D0220E030E0C0E0CA
:203B8000D0E0309711F14081518148175907C0F04817590761F482819381209719F09B83A1
:203BA0008A832BC090939D0280939C0226C02115310519F04217530718F49A01BE01DF0146
:203BC000EF010280F381E02DDCCF2115310509F1281B390B2430310590F412968D919C9159
:203BE00013976115710521F0FB019383828304C090939D0280939C02FD01329644C0FD0108
:203C0000E20FF31F81939193225031092D933C933AC020919A0230919B02232B41F4209155
:203C200006013091070130939B0220939A0220910401309105012115310541F42DB73EB70E
:203C40004091080150910901241B350BE0919A02F0919B02E217F307A0F42E1B3F0B28179C
:203C6000390778F0AC014E5F5F4F2417350748F04E0F5F1F50939B0240939A0281939193E3
:203C800002C0E0E0F0E0CF01DF91CF9108950F931F93CF93DF93009709F48CC0FC013297C7
:203CA0001382128200919C0210919D020115110581F420813181820F931F20919A02309127
:203CC0009B022817390779F5F0939B02E0939A0271C0D80140E050E0AE17BF0750F412965A
:203CE0002D913C911397AD012115310509F1D901F3CF9D01DA013383228360817181860FA3
:203D0000971F8217930769F4EC0128813981260F371F2E5F3F4F318320838A819B819383D3
:203D20008283452B29F4F0939D02E0939C0242C01396FC93EE931297ED01499159919E0109
:203D4000240F351FE217F30771F480819181840F951F029611969C938E93828193811396DB
:203D60009C938E931297E0E0F0E0D80112968D919C911397009719F0F8018C01F6CF8D913B
:203D80009C9198012E5F3F4F820F931F20919A0230919B022817390769F4309729F41092F2
:203DA0009D0210929C0202C01382128210939B0200939A02DF91CF911F910F910895F89481
:203DC000FFCF0100000000009E0280004920616D207468652054566F75740A6C6962726126
:203DE00072792072756E6E696E67206F6E206120667265656475696E6F0A00492067656EAB
:203E0000657261746520612050414C0A6F72204E54534320636F6D706F7369746520207627
:203E20006964656F207573696E670A696E74657272757074730A004D7920736368656D61D0
:203E40007469633A004C6574732073656520776861740A7768617420492063616E20646FB3
:203E6000004D756C7469706C6520666F6E74733A0034783620666F6E7420464F4E5400362C
:203E8000783820666F6E7420464F4E540038783820666F6E7420464F4E5400447261772080
:203EA0004261736963205368617065730052616E646F6D204375626500526F746174696FBA
:203EC0006E00FFFFFFFFFFFFFFFFFFFFFFFFFFFFFFFFFFFFFFFFFFFFFFFFFFFFFFFFFFFF92
:203EE000FFFFFFFFFFFFFFFFFFFFFFFFFFFFFFFFFFFFFFFFFFFFFFFFFFFFFFFFFFFFFFFFE2
:203F0000666F6E74733A0034783620666F6E7420464F4E540036783820666F6E7420464FBB
:203F20004E540038783820666F6E7420464F4E54004472617720426173696320536861708D
:203F400065730052616E646F6D204375626500526F746174696F6E00FFFFFFFFFFFFFFFF41
:203F6000FFFFFFFFFFFFFFFFFFFFFFFFFFFFFFFFFFFFFFFFFFFFFFFFFFFFFFFFFFFFFFFF61
:203F8000FFFFFFFFFFFFFFFFFFFFFFFFFFFFFFFFFFFFFFFFFFFFFFFFFFFFFFFFFFFFFFFF41
:203FA000FFFFFFFFFFFFFFFFFFFFFFFFFFFFFFFFFFFFFFFFFFFFFFFFFFFFFFFFFFFFFFFF21
:203FC000FFFFFFFFFFFFFFFFFFFFFFFFFFFFFFFFFFFFFFFFFFFFFFFFFFFFFFFFFFFFFFFF01
:207E0000112484B714BE81FFF0D085E08093810082E08093C00088E18093C10086E08093FC
:207E2000C20080E18093C4008EE0C9D0259A86E020E33CEF91E0309385002093840096BBAD
:207E4000B09BFECF1D9AA8958150A9F7CC24DD2488248394B5E0AB2EA1E19A2EF3E0BF2E79
:207E6000A2D0813461F49FD0082FAFD0023811F0013811F484E001C083E08DD089C0823404
:207E800011F484E103C0853419F485E0A6D080C0853579F488D0E82EFF2485D0082F10E0A0
:207EA000102F00270E291F29000F111F8ED068016FC0863521F484E090D080E0DECF84364D
:207EC00009F040C070D06FD0082F6DD080E0C81680E7D80618F4F601B7BEE895C0E0D1E0ED
:207EE00062D089930C17E1F7F0E0CF16F0E7DF0618F0F601B7BEE89568D007B600FCFDCF1A
:207F0000A601A0E0B1E02C9130E011968C91119790E0982F8827822B932B1296FA010C016F
:207F200087BEE89511244E5F5F4FF1E0A038BF0751F7F601A7BEE89507B600FCFDCF97BE85
:207F4000E89526C08437B1F42ED02DD0F82E2BD03CD0F601EF2C8F010F5F1F4F84911BD0B8
:207F6000EA94F801C1F70894C11CD11CFA94CF0CD11C0EC0853739F428D08EE10CD085E9AE
:207F80000AD08FE07ACF813511F488E018D01DD080E101D065CF982F8091C00085FFFCCF0A
:207FA0009093C60008958091C00087FFFCCF8091C00084FD01C0A8958091C6000895E0E68F
:207FC000F0E098E1908380830895EDDF803219F088E0F5DFFFCF84E1DECF1F93182FE3DF47
:207FE0001150E9F7F2DF1F91089580E0E8DFEE27FF270994FFFFFFFFFFFFFFFFFFFF040425
:00000001FF
